{
  "_format": "hh-sol-artifact-1",
  "contractName": "DiamondVault",
  "sourceName": "contracts/DiamondVault.sol",
  "abi": [
    {
      "inputs": [
        {
          "internalType": "address",
          "name": "sender",
          "type": "address"
        }
      ],
      "name": "getVaultDetails",
      "outputs": [
        {
          "components": [
            {
              "internalType": "uint256",
              "name": "amount",
              "type": "uint256"
            },
            {
              "internalType": "uint256",
              "name": "unlockTime",
              "type": "uint256"
            }
          ],
          "internalType": "struct DiamondVault.HoldingDetails",
          "name": "",
          "type": "tuple"
        }
      ],
      "stateMutability": "view",
      "type": "function"
    },
    {
      "inputs": [
        {
          "internalType": "address",
          "name": "",
          "type": "address"
        }
      ],
      "name": "holdings",
      "outputs": [
        {
          "internalType": "uint256",
          "name": "",
          "type": "uint256"
        }
      ],
      "stateMutability": "view",
      "type": "function"
    },
    {
      "inputs": [
        {
          "internalType": "uint256",
          "name": "_holdingPeriodInDays",
          "type": "uint256"
        }
      ],
      "name": "storeHoldings",
      "outputs": [],
      "stateMutability": "payable",
      "type": "function"
    },
    {
      "inputs": [],
      "name": "unlockHoldings",
      "outputs": [],
      "stateMutability": "nonpayable",
      "type": "function"
    },
    {
      "inputs": [
        {
          "internalType": "address",
          "name": "",
          "type": "address"
        }
      ],
      "name": "unlockTimes",
      "outputs": [
        {
          "internalType": "uint256",
          "name": "",
          "type": "uint256"
        }
      ],
      "stateMutability": "view",
      "type": "function"
    }
  ],
  "bytecode": "0x608060405234801561001057600080fd5b50610f30806100206000396000f3fe60806040526004361061004a5760003560e01c806367a44ca31461004f5780636bf807fc1461008c5780637dde40b2146100c9578063dd3ced63146100e5578063e3d0a52e14610122575b600080fd5b34801561005b57600080fd5b5061007660048036038101906100719190610903565b610139565b6040516100839190610bd1565b60405180910390f35b34801561009857600080fd5b506100b360048036038101906100ae9190610903565b6102f7565b6040516100c09190610bec565b60405180910390f35b6100e360048036038101906100de919061092c565b61030f565b005b3480156100f157600080fd5b5061010c60048036038101906101079190610903565b6104ff565b6040516101199190610bec565b60405180910390f35b34801561012e57600080fd5b50610137610517565b005b6101416108bf565b610163604051806060016040528060218152602001610e8c602191398361075e565b6101e06040518060400160405280601d81526020017f53656e64657227732063757272656e7420686f6c64696e67733a2025730000008152506000808573ffffffffffffffffffffffffffffffffffffffff1673ffffffffffffffffffffffffffffffffffffffff168152602001908152602001600020546107fa565b61025e6040518060400160405280601881526020017f53656e646572277320756e6c6f636b2074696d653a2025730000000000000000815250600160008573ffffffffffffffffffffffffffffffffffffffff1673ffffffffffffffffffffffffffffffffffffffff168152602001908152602001600020546107fa565b60405180604001604052806000808573ffffffffffffffffffffffffffffffffffffffff1673ffffffffffffffffffffffffffffffffffffffff168152602001908152602001600020548152602001600160008573ffffffffffffffffffffffffffffffffffffffff1673ffffffffffffffffffffffffffffffffffffffff168152602001908152602001600020548152509050919050565b60016020528060005260406000206000915090505481565b610331604051806060016040528060228152602001610ead602291393361075e565b6103706040518060400160405280601d81526020017f53656e64657220697320747279696e6720746f2073746f72653a202573000000815250346107fa565b6103926040518060600160405280602c8152602001610ecf602c9139826107fa565b600034116103d5576040517f08c379a00000000000000000000000000000000000000000000000000000000081526004016103cc90610bb1565b60405180910390fd5b60008060003373ffffffffffffffffffffffffffffffffffffffff1673ffffffffffffffffffffffffffffffffffffffff1681526020019081526020016000205414610456576040517f08c379a000000000000000000000000000000000000000000000000000000000815260040161044d90610b71565b60405180910390fd5b600062015180826104679190610c84565b426104729190610c2e565b905080600160003373ffffffffffffffffffffffffffffffffffffffff1673ffffffffffffffffffffffffffffffffffffffff16815260200190815260200160002081905550346000803373ffffffffffffffffffffffffffffffffffffffff1673ffffffffffffffffffffffffffffffffffffffff168152602001908152602001600020819055505050565b60006020528060005260406000206000915090505481565b6000600160003373ffffffffffffffffffffffffffffffffffffffff1673ffffffffffffffffffffffffffffffffffffffff1681526020019081526020016000205490508042101561059e576040517f08c379a000000000000000000000000000000000000000000000000000000000815260040161059590610b31565b60405180910390fd5b60008060003373ffffffffffffffffffffffffffffffffffffffff1673ffffffffffffffffffffffffffffffffffffffff16815260200190815260200160002054905060008111610624576040517f08c379a000000000000000000000000000000000000000000000000000000000815260040161061b90610b51565b60405180910390fd5b60008060003373ffffffffffffffffffffffffffffffffffffffff1673ffffffffffffffffffffffffffffffffffffffff168152602001908152602001600020819055506000600160003373ffffffffffffffffffffffffffffffffffffffff1673ffffffffffffffffffffffffffffffffffffffff1681526020019081526020016000208190555060003373ffffffffffffffffffffffffffffffffffffffff16826040516106d390610abc565b60006040518083038185875af1925050503d8060008114610710576040519150601f19603f3d011682016040523d82523d6000602084013e610715565b606091505b5050905080610759576040517f08c379a000000000000000000000000000000000000000000000000000000000815260040161075090610b91565b60405180910390fd5b505050565b6107f68282604051602401610774929190610ad1565b6040516020818303038152906040527f319af333000000000000000000000000000000000000000000000000000000007bffffffffffffffffffffffffffffffffffffffffffffffffffffffff19166020820180517bffffffffffffffffffffffffffffffffffffffffffffffffffffffff8381831617835250505050610896565b5050565b6108928282604051602401610810929190610b01565b6040516020818303038152906040527f9710a9d0000000000000000000000000000000000000000000000000000000007bffffffffffffffffffffffffffffffffffffffffffffffffffffffff19166020820180517bffffffffffffffffffffffffffffffffffffffffffffffffffffffff8381831617835250505050610896565b5050565b60008151905060006a636f6e736f6c652e6c6f679050602083016000808483855afa5050505050565b604051806040016040528060008152602001600081525090565b6000813590506108e881610e5d565b92915050565b6000813590506108fd81610e74565b92915050565b60006020828403121561091557600080fd5b6000610923848285016108d9565b91505092915050565b60006020828403121561093e57600080fd5b600061094c848285016108ee565b91505092915050565b61095e81610cde565b82525050565b600061096f82610c07565b6109798185610c1d565b9350610989818560208601610d1a565b61099281610d7c565b840191505092915050565b60006109aa601683610c1d565b91506109b582610d8d565b602082019050919050565b60006109cd601b83610c1d565b91506109d882610db6565b602082019050919050565b60006109f0601683610c1d565b91506109fb82610ddf565b602082019050919050565b6000610a13600083610c12565b9150610a1e82610e08565b600082019050919050565b6000610a36601083610c1d565b9150610a4182610e0b565b602082019050919050565b6000610a59601f83610c1d565b9150610a6482610e34565b602082019050919050565b604082016000820151610a856000850182610a9e565b506020820151610a986020850182610a9e565b50505050565b610aa781610d10565b82525050565b610ab681610d10565b82525050565b6000610ac782610a06565b9150819050919050565b60006040820190508181036000830152610aeb8185610964565b9050610afa6020830184610955565b9392505050565b60006040820190508181036000830152610b1b8185610964565b9050610b2a6020830184610aad565b9392505050565b60006020820190508181036000830152610b4a8161099d565b9050919050565b60006020820190508181036000830152610b6a816109c0565b9050919050565b60006020820190508181036000830152610b8a816109e3565b9050919050565b60006020820190508181036000830152610baa81610a29565b9050919050565b60006020820190508181036000830152610bca81610a4c565b9050919050565b6000604082019050610be66000830184610a6f565b92915050565b6000602082019050610c016000830184610aad565b92915050565b600081519050919050565b600081905092915050565b600082825260208201905092915050565b6000610c3982610d10565b9150610c4483610d10565b9250827fffffffffffffffffffffffffffffffffffffffffffffffffffffffffffffffff03821115610c7957610c78610d4d565b5b828201905092915050565b6000610c8f82610d10565b9150610c9a83610d10565b9250817fffffffffffffffffffffffffffffffffffffffffffffffffffffffffffffffff0483118215151615610cd357610cd2610d4d565b5b828202905092915050565b6000610ce982610cf0565b9050919050565b600073ffffffffffffffffffffffffffffffffffffffff82169050919050565b6000819050919050565b60005b83811015610d38578082015181840152602081019050610d1d565b83811115610d47576000848401525b50505050565b7f4e487b7100000000000000000000000000000000000000000000000000000000600052601160045260246000fd5b6000601f19601f8301169050919050565b7f596f752063616e27742077697468647261772079657400000000000000000000600082015250565b7f596f7520646f6e2774206861766520616e7920686f6c64696e67730000000000600082015250565b7f43616e277420616464206e657720686f6c64696e677300000000000000000000600082015250565b50565b7f5472616e73666572206661696c65642e00000000000000000000000000000000600082015250565b7f596f75206e65656420746f2073656e6420657468657220746f2073746f726500600082015250565b610e6681610cde565b8114610e7157600080fd5b50565b610e7d81610d10565b8114610e8857600080fd5b5056fe53656e64657220747279696e6720746f207669657720686f6c64696e677320257353656e64657220747279696e6720746f2073746f726520686f6c64696e677320257353656e6465722077616e747320746f206c6f636b20757020686f6c64696e677320666f722025732064617973a264697066735822122060590f6ff862da29ec0621806da6821ef6c93f10e0ad094cff2ad6988049c05564736f6c63430008040033",
  "linkReferences": {},
  "deployedLinkReferences": {}
}