{
  "_format": "hh-sol-artifact-1",
  "contractName": "HodlVault",
  "sourceName": "contracts/HodlVault.sol",
  "abi": [
    {
      "inputs": [],
      "name": "getVaultDetails",
      "outputs": [
        {
          "components": [
            {
              "internalType": "uint256",
              "name": "amount",
              "type": "uint256"
            },
            {
              "internalType": "uint256",
              "name": "unlockTime",
              "type": "uint256"
            }
          ],
          "internalType": "struct HodlVault.HoldingDetails",
          "name": "",
          "type": "tuple"
        }
      ],
      "stateMutability": "view",
      "type": "function"
    },
    {
      "inputs": [
        {
          "internalType": "address",
          "name": "",
          "type": "address"
        }
      ],
      "name": "holdings",
      "outputs": [
        {
          "internalType": "uint256",
          "name": "",
          "type": "uint256"
        }
      ],
      "stateMutability": "view",
      "type": "function"
    },
    {
      "inputs": [
        {
          "internalType": "uint256",
          "name": "_holdingPeriodInDays",
          "type": "uint256"
        }
      ],
      "name": "storeHoldings",
      "outputs": [],
      "stateMutability": "payable",
      "type": "function"
    },
    {
      "inputs": [],
      "name": "unlockHoldings",
      "outputs": [],
      "stateMutability": "nonpayable",
      "type": "function"
    },
    {
      "inputs": [
        {
          "internalType": "address",
          "name": "",
          "type": "address"
        }
      ],
      "name": "unlockTimes",
      "outputs": [
        {
          "internalType": "uint256",
          "name": "",
          "type": "uint256"
        }
      ],
      "stateMutability": "view",
      "type": "function"
    }
  ],
  "bytecode": "0x608060405234801561001057600080fd5b50610f1c806100206000396000f3fe60806040526004361061004a5760003560e01c8063533092ef1461004f5780636bf807fc1461007a5780637dde40b2146100b7578063dd3ced63146100d3578063e3d0a52e14610110575b600080fd5b34801561005b57600080fd5b50610064610127565b6040516100719190610bbd565b60405180910390f35b34801561008657600080fd5b506100a1600480360381019061009c91906108ef565b6102e3565b6040516100ae9190610bd8565b60405180910390f35b6100d160048036038101906100cc9190610918565b6102fb565b005b3480156100df57600080fd5b506100fa60048036038101906100f591906108ef565b6104eb565b6040516101079190610bd8565b60405180910390f35b34801561011c57600080fd5b50610125610503565b005b61012f6108ab565b610151604051806060016040528060218152602001610e78602191393261074a565b6101ce6040518060400160405280601d81526020017f53656e64657227732063757272656e7420686f6c64696e67733a2025730000008152506000803273ffffffffffffffffffffffffffffffffffffffff1673ffffffffffffffffffffffffffffffffffffffff168152602001908152602001600020546107e6565b61024c6040518060400160405280601881526020017f53656e646572277320756e6c6f636b2074696d653a2025730000000000000000815250600160003273ffffffffffffffffffffffffffffffffffffffff1673ffffffffffffffffffffffffffffffffffffffff168152602001908152602001600020546107e6565b60405180604001604052806000803273ffffffffffffffffffffffffffffffffffffffff1673ffffffffffffffffffffffffffffffffffffffff168152602001908152602001600020548152602001600160003273ffffffffffffffffffffffffffffffffffffffff1673ffffffffffffffffffffffffffffffffffffffff16815260200190815260200160002054815250905090565b60016020528060005260406000206000915090505481565b61031d604051806060016040528060228152602001610e99602291393361074a565b61035c6040518060400160405280601d81526020017f53656e64657220697320747279696e6720746f2073746f72653a202573000000815250346107e6565b61037e6040518060600160405280602c8152602001610ebb602c9139826107e6565b600034116103c1576040517f08c379a00000000000000000000000000000000000000000000000000000000081526004016103b890610b9d565b60405180910390fd5b60008060003373ffffffffffffffffffffffffffffffffffffffff1673ffffffffffffffffffffffffffffffffffffffff1681526020019081526020016000205414610442576040517f08c379a000000000000000000000000000000000000000000000000000000000815260040161043990610b5d565b60405180910390fd5b600062015180826104539190610c70565b4261045e9190610c1a565b905080600160003373ffffffffffffffffffffffffffffffffffffffff1673ffffffffffffffffffffffffffffffffffffffff16815260200190815260200160002081905550346000803373ffffffffffffffffffffffffffffffffffffffff1673ffffffffffffffffffffffffffffffffffffffff168152602001908152602001600020819055505050565b60006020528060005260406000206000915090505481565b6000600160003373ffffffffffffffffffffffffffffffffffffffff1673ffffffffffffffffffffffffffffffffffffffff1681526020019081526020016000205490508042101561058a576040517f08c379a000000000000000000000000000000000000000000000000000000000815260040161058190610b1d565b60405180910390fd5b60008060003373ffffffffffffffffffffffffffffffffffffffff1673ffffffffffffffffffffffffffffffffffffffff16815260200190815260200160002054905060008111610610576040517f08c379a000000000000000000000000000000000000000000000000000000000815260040161060790610b3d565b60405180910390fd5b60008060003373ffffffffffffffffffffffffffffffffffffffff1673ffffffffffffffffffffffffffffffffffffffff168152602001908152602001600020819055506000600160003373ffffffffffffffffffffffffffffffffffffffff1673ffffffffffffffffffffffffffffffffffffffff1681526020019081526020016000208190555060003373ffffffffffffffffffffffffffffffffffffffff16826040516106bf90610aa8565b60006040518083038185875af1925050503d80600081146106fc576040519150601f19603f3d011682016040523d82523d6000602084013e610701565b606091505b5050905080610745576040517f08c379a000000000000000000000000000000000000000000000000000000000815260040161073c90610b7d565b60405180910390fd5b505050565b6107e28282604051602401610760929190610abd565b6040516020818303038152906040527f319af333000000000000000000000000000000000000000000000000000000007bffffffffffffffffffffffffffffffffffffffffffffffffffffffff19166020820180517bffffffffffffffffffffffffffffffffffffffffffffffffffffffff8381831617835250505050610882565b5050565b61087e82826040516024016107fc929190610aed565b6040516020818303038152906040527f9710a9d0000000000000000000000000000000000000000000000000000000007bffffffffffffffffffffffffffffffffffffffffffffffffffffffff19166020820180517bffffffffffffffffffffffffffffffffffffffffffffffffffffffff8381831617835250505050610882565b5050565b60008151905060006a636f6e736f6c652e6c6f679050602083016000808483855afa5050505050565b604051806040016040528060008152602001600081525090565b6000813590506108d481610e49565b92915050565b6000813590506108e981610e60565b92915050565b60006020828403121561090157600080fd5b600061090f848285016108c5565b91505092915050565b60006020828403121561092a57600080fd5b6000610938848285016108da565b91505092915050565b61094a81610cca565b82525050565b600061095b82610bf3565b6109658185610c09565b9350610975818560208601610d06565b61097e81610d68565b840191505092915050565b6000610996601683610c09565b91506109a182610d79565b602082019050919050565b60006109b9601b83610c09565b91506109c482610da2565b602082019050919050565b60006109dc601683610c09565b91506109e782610dcb565b602082019050919050565b60006109ff600083610bfe565b9150610a0a82610df4565b600082019050919050565b6000610a22601083610c09565b9150610a2d82610df7565b602082019050919050565b6000610a45601f83610c09565b9150610a5082610e20565b602082019050919050565b604082016000820151610a716000850182610a8a565b506020820151610a846020850182610a8a565b50505050565b610a9381610cfc565b82525050565b610aa281610cfc565b82525050565b6000610ab3826109f2565b9150819050919050565b60006040820190508181036000830152610ad78185610950565b9050610ae66020830184610941565b9392505050565b60006040820190508181036000830152610b078185610950565b9050610b166020830184610a99565b9392505050565b60006020820190508181036000830152610b3681610989565b9050919050565b60006020820190508181036000830152610b56816109ac565b9050919050565b60006020820190508181036000830152610b76816109cf565b9050919050565b60006020820190508181036000830152610b9681610a15565b9050919050565b60006020820190508181036000830152610bb681610a38565b9050919050565b6000604082019050610bd26000830184610a5b565b92915050565b6000602082019050610bed6000830184610a99565b92915050565b600081519050919050565b600081905092915050565b600082825260208201905092915050565b6000610c2582610cfc565b9150610c3083610cfc565b9250827fffffffffffffffffffffffffffffffffffffffffffffffffffffffffffffffff03821115610c6557610c64610d39565b5b828201905092915050565b6000610c7b82610cfc565b9150610c8683610cfc565b9250817fffffffffffffffffffffffffffffffffffffffffffffffffffffffffffffffff0483118215151615610cbf57610cbe610d39565b5b828202905092915050565b6000610cd582610cdc565b9050919050565b600073ffffffffffffffffffffffffffffffffffffffff82169050919050565b6000819050919050565b60005b83811015610d24578082015181840152602081019050610d09565b83811115610d33576000848401525b50505050565b7f4e487b7100000000000000000000000000000000000000000000000000000000600052601160045260246000fd5b6000601f19601f8301169050919050565b7f596f752063616e27742077697468647261772079657400000000000000000000600082015250565b7f596f7520646f6e2774206861766520616e7920686f6c64696e67730000000000600082015250565b7f43616e277420616464206e657720686f6c64696e677300000000000000000000600082015250565b50565b7f5472616e73666572206661696c65642e00000000000000000000000000000000600082015250565b7f596f75206e65656420746f2073656e6420657468657220746f2073746f726500600082015250565b610e5281610cca565b8114610e5d57600080fd5b50565b610e6981610cfc565b8114610e7457600080fd5b5056fe53656e64657220747279696e6720746f207669657720686f6c64696e677320257353656e64657220747279696e6720746f2073746f726520686f6c64696e677320257353656e6465722077616e747320746f206c6f636b20757020686f6c64696e677320666f722025732064617973a26469706673582212203279ae618ae4ad41e73f04bc4c3cc14d24870d1a7bae0f28999a78d663fe4ac764736f6c63430008040033",
  "linkReferences": {},
  "deployedLinkReferences": {}
}