{
  "contractName": "HodlVault",
  "abi": [
    {
      "inputs": [
        {
          "internalType": "uint256",
          "name": "_holdingPeriodInDays",
          "type": "uint256"
        }
      ],
      "name": "storeHoldings",
      "outputs": [],
      "stateMutability": "payable",
      "type": "function",
      "payable": true
    },
    {
      "inputs": [],
      "name": "unlockHoldings",
      "outputs": [],
      "stateMutability": "payable",
      "type": "function",
      "payable": true
    },
    {
      "inputs": [],
      "name": "getVaultDetails",
      "outputs": [
        {
          "components": [
            {
              "internalType": "uint256",
              "name": "amount",
              "type": "uint256"
            },
            {
              "internalType": "uint256",
              "name": "unlockTime",
              "type": "uint256"
            }
          ],
          "internalType": "struct HodlVault.HoldingDetails",
          "name": "",
          "type": "tuple"
        }
      ],
      "stateMutability": "view",
      "type": "function",
      "constant": true
    }
  ],
  "bytecode": "0x608060405234801561001057600080fd5b5061084c806100206000396000f3fe6080604052600436106100345760003560e01c8063533092ef146100395780637dde40b214610064578063e3d0a52e14610080575b600080fd5b34801561004557600080fd5b5061004e61008a565b60405161005b91906104b7565b60405180910390f35b61007e60048036038101906100799190610503565b610129565b005b610088610253565b005b610092610455565b60405180604001604052806000803373ffffffffffffffffffffffffffffffffffffffff1673ffffffffffffffffffffffffffffffffffffffff168152602001908152602001600020548152602001600160003373ffffffffffffffffffffffffffffffffffffffff1673ffffffffffffffffffffffffffffffffffffffff16815260200190815260200160002054815250905090565b60008060003373ffffffffffffffffffffffffffffffffffffffff1673ffffffffffffffffffffffffffffffffffffffff16815260200190815260200160002054146101aa576040517f08c379a00000000000000000000000000000000000000000000000000000000081526004016101a19061058d565b60405180910390fd5b600062015180826101bb91906105dc565b426101c69190610636565b905080600160003373ffffffffffffffffffffffffffffffffffffffff1673ffffffffffffffffffffffffffffffffffffffff16815260200190815260200160002081905550346000803373ffffffffffffffffffffffffffffffffffffffff1673ffffffffffffffffffffffffffffffffffffffff168152602001908152602001600020819055505050565b6000600160003373ffffffffffffffffffffffffffffffffffffffff1673ffffffffffffffffffffffffffffffffffffffff168152602001908152602001600020549050804210156102da576040517f08c379a00000000000000000000000000000000000000000000000000000000081526004016102d1906106d8565b60405180910390fd5b60008060003373ffffffffffffffffffffffffffffffffffffffff1673ffffffffffffffffffffffffffffffffffffffff16815260200190815260200160002054905060008111610360576040517f08c379a000000000000000000000000000000000000000000000000000000000815260040161035790610744565b60405180910390fd5b60008060003373ffffffffffffffffffffffffffffffffffffffff1673ffffffffffffffffffffffffffffffffffffffff1681526020019081526020016000208190555060003373ffffffffffffffffffffffffffffffffffffffff16826040516103ca90610795565b60006040518083038185875af1925050503d8060008114610407576040519150601f19603f3d011682016040523d82523d6000602084013e61040c565b606091505b5050905080610450576040517f08c379a0000000000000000000000000000000000000000000000000000000008152600401610447906107f6565b60405180910390fd5b505050565b604051806040016040528060008152602001600081525090565b6000819050919050565b6104828161046f565b82525050565b60408201600082015161049e6000850182610479565b5060208201516104b16020850182610479565b50505050565b60006040820190506104cc6000830184610488565b92915050565b600080fd5b6104e08161046f565b81146104eb57600080fd5b50565b6000813590506104fd816104d7565b92915050565b600060208284031215610519576105186104d2565b5b6000610527848285016104ee565b91505092915050565b600082825260208201905092915050565b7f43616e277420616464206e657720686f6c64696e677300000000000000000000600082015250565b6000610577601683610530565b915061058282610541565b602082019050919050565b600060208201905081810360008301526105a68161056a565b9050919050565b7f4e487b7100000000000000000000000000000000000000000000000000000000600052601160045260246000fd5b60006105e78261046f565b91506105f28361046f565b9250817fffffffffffffffffffffffffffffffffffffffffffffffffffffffffffffffff048311821515161561062b5761062a6105ad565b5b828202905092915050565b60006106418261046f565b915061064c8361046f565b9250827fffffffffffffffffffffffffffffffffffffffffffffffffffffffffffffffff03821115610681576106806105ad565b5b828201905092915050565b7f596f752063616e27742077697468647261772079657400000000000000000000600082015250565b60006106c2601683610530565b91506106cd8261068c565b602082019050919050565b600060208201905081810360008301526106f1816106b5565b9050919050565b7f596f7520646f6e2774206861766520616e7920686f6c64696e67730000000000600082015250565b600061072e601b83610530565b9150610739826106f8565b602082019050919050565b6000602082019050818103600083015261075d81610721565b9050919050565b600081905092915050565b50565b600061077f600083610764565b915061078a8261076f565b600082019050919050565b60006107a082610772565b9150819050919050565b7f5472616e73666572206661696c65642e00000000000000000000000000000000600082015250565b60006107e0601083610530565b91506107eb826107aa565b602082019050919050565b6000602082019050818103600083015261080f816107d3565b905091905056fea26469706673582212201bbeec90032276ce208320ae49a027be7786429470a0d3995fb44e786f84fa2164736f6c634300080a0033",
  "immutableReferences": {},
  "source": "//SPDX-License-Identifier: Unlicense\npragma solidity ^0.8.0;\n\ncontract HodlVault {\n    mapping(address => uint256) private holdings;\n    mapping(address => uint256) private unlockTimes;\n\n   struct HoldingDetails {\n       uint256 amount;\n       uint256 unlockTime;\n   }\n\n    function storeHoldings(uint256 _holdingPeriodInDays) external payable {\n        require(holdings[msg.sender] == 0, \"Can't add new holdings\");\n        uint256 _unlockTime = block.timestamp + (_holdingPeriodInDays * 1 days);\n        unlockTimes[msg.sender] = _unlockTime;\n        holdings[msg.sender] = msg.value;\n    }\n\n    function unlockHoldings() public payable {\n        uint256 unlockTime = unlockTimes[msg.sender];\n        require(block.timestamp >= unlockTime, \"You can't withdraw yet\");\n\n        uint256 heldAmount = holdings[msg.sender];\n        require(heldAmount > 0, \"You don't have any holdings\");\n\n        holdings[msg.sender] = 0;\n        (bool success, ) = msg.sender.call{value: heldAmount}(\"\");\n        require(success, \"Transfer failed.\");\n    }\n\n    function getVaultDetails() public view returns(HoldingDetails memory) {\n        return HoldingDetails(holdings[msg.sender], unlockTimes[msg.sender]);\n    }\n}\n",
  "sourcePath": "/Users/anthony/Projects/diamond-hands-only/contracts/HodlVault.sol",
  "compiler": {
    "name": "solc",
    "version": "0.8.10+commit.fc410830.Emscripten.clang"
  },
  "schemaVersion": "3.4.3",
  "updatedAt": "2021-12-11T02:08:54.401Z",
  "networkType": "ethereum",
  "devdoc": {
    "kind": "dev",
    "methods": {},
    "version": 1
  },
  "userdoc": {
    "kind": "user",
    "methods": {},
    "version": 1
  }
}